{
  "_format": "hh-sol-artifact-1",
  "contractName": "MyTermsConsentLedger",
  "sourceName": "contracts/MyTermsConsentLedger.sol",
  "abi": [
    {
      "anonymous": false,
      "inputs": [
        {
          "indexed": true,
          "internalType": "address",
          "name": "user",
          "type": "address"
        },
        {
          "indexed": false,
          "internalType": "string",
          "name": "siteDomain",
          "type": "string"
        },
        {
          "indexed": false,
          "internalType": "bytes32",
          "name": "termsHash",
          "type": "bytes32"
        },
        {
          "indexed": false,
          "internalType": "uint256",
          "name": "timestamp",
          "type": "uint256"
        }
      ],
      "name": "ConsentLogged",
      "type": "event"
    },
    {
      "inputs": [
        {
          "internalType": "string",
          "name": "site",
          "type": "string"
        },
        {
          "internalType": "bytes32",
          "name": "termsHash",
          "type": "bytes32"
        }
      ],
      "name": "logConsent",
      "outputs": [],
      "stateMutability": "nonpayable",
      "type": "function"
    },
    {
      "inputs": [
        {
          "internalType": "string[]",
          "name": "sites",
          "type": "string[]"
        },
        {
          "internalType": "bytes32[]",
          "name": "hashes",
          "type": "bytes32[]"
        }
      ],
      "name": "logConsentBatch",
      "outputs": [],
      "stateMutability": "nonpayable",
      "type": "function"
    }
  ],
  "bytecode": "0x608060405234801561001057600080fd5b5061067e806100206000396000f3fe608060405234801561001057600080fd5b50600436106100365760003560e01c80637d31c15e1461003b578063e3fd67f414610057575b600080fd5b61005560048036038101906100509190610291565b610073565b005b610071600480360381019061006c919061039e565b610173565b005b8181905084849050146100bb576040517f08c379a00000000000000000000000000000000000000000000000000000000081526004016100b29061045b565b60405180910390fd5b60005b8484905081101561016c573373ffffffffffffffffffffffffffffffffffffffff167f2831c79fbd1755d6d14d75084cd067ec24d2935232a5a31ea08236f552e07c8b8686848181106101145761011361047b565b5b905060200281019061012691906104b9565b8686868181106101395761013861047b565b5b90506020020135426040516101519493929190610591565b60405180910390a2808061016490610600565b9150506100be565b5050505050565b3373ffffffffffffffffffffffffffffffffffffffff167f2831c79fbd1755d6d14d75084cd067ec24d2935232a5a31ea08236f552e07c8b848484426040516101bf9493929190610591565b60405180910390a2505050565b600080fd5b600080fd5b600080fd5b600080fd5b600080fd5b60008083601f8401126101fb576101fa6101d6565b5b8235905067ffffffffffffffff811115610218576102176101db565b5b602083019150836020820283011115610234576102336101e0565b5b9250929050565b60008083601f840112610251576102506101d6565b5b8235905067ffffffffffffffff81111561026e5761026d6101db565b5b60208301915083602082028301111561028a576102896101e0565b5b9250929050565b600080600080604085870312156102ab576102aa6101cc565b5b600085013567ffffffffffffffff8111156102c9576102c86101d1565b5b6102d5878288016101e5565b9450945050602085013567ffffffffffffffff8111156102f8576102f76101d1565b5b6103048782880161023b565b925092505092959194509250565b60008083601f840112610328576103276101d6565b5b8235905067ffffffffffffffff811115610345576103446101db565b5b602083019150836001820283011115610361576103606101e0565b5b9250929050565b6000819050919050565b61037b81610368565b811461038657600080fd5b50565b60008135905061039881610372565b92915050565b6000806000604084860312156103b7576103b66101cc565b5b600084013567ffffffffffffffff8111156103d5576103d46101d1565b5b6103e186828701610312565b935093505060206103f486828701610389565b9150509250925092565b600082825260208201905092915050565b7f4d69736d61746368656420696e707574206c656e677468730000000000000000600082015250565b60006104456018836103fe565b91506104508261040f565b602082019050919050565b6000602082019050818103600083015261047481610438565b9050919050565b7f4e487b7100000000000000000000000000000000000000000000000000000000600052603260045260246000fd5b600080fd5b600080fd5b600080fd5b600080833560016020038436030381126104d6576104d56104aa565b5b80840192508235915067ffffffffffffffff8211156104f8576104f76104af565b5b602083019250600182023603831315610514576105136104b4565b5b509250929050565b82818337600083830152505050565b6000601f19601f8301169050919050565b600061054883856103fe565b935061055583858461051c565b61055e8361052b565b840190509392505050565b61057281610368565b82525050565b6000819050919050565b61058b81610578565b82525050565b600060608201905081810360008301526105ac81868861053c565b90506105bb6020830185610569565b6105c86040830184610582565b95945050505050565b7f4e487b7100000000000000000000000000000000000000000000000000000000600052601160045260246000fd5b600061060b82610578565b91507fffffffffffffffffffffffffffffffffffffffffffffffffffffffffffffffff820361063d5761063c6105d1565b5b60018201905091905056fea264697066735822122054c248d8f4f6f5a497ad60d1cdc9b2b31b4396e943ffe702938a61dbe84f993064736f6c63430008140033",
  "linkReferences": {},
  "deployedLinkReferences": {}
}